:040000008A15092C28
:10000800FF00030E83010317E1000A08DA008A01E2
:100018007B080313A4007C08A3007D08A2008B1CA6
:100028001D280B1E1D288B1001300317D800003027
:10003800D9000B1D322803170B1186161530FB004B
:100048004B30FC00BE30FD00FD0B2828FC0B282897
:10005800FB0B282800008612FE30810003132408B9
:10006800FB002308FC002208FD0003175A088A0039
:0A007800610E8300FF0E7F0E0900E9
:0600820000000000080070
:100088000F3083120313FC004730FD00FD0B4A2894
:0A009800FC0B4A28000000000800DD
:0E00A200213083120313FD00FD0B55280800CA
:1000B00083160317951B6028831203138712632886
:1000C00083120313871683160317151B6B288312DD
:1000D000031307126E2883120313071683160317E0
:1000E000951A762883120313871179288312031334
:1000F000871583160317151A812883120313071116
:10010000842883120313071503173F188A28031343
:1001100007148C28031307108714412087108316B7
:100120000317951997288312031387129A288312AD
:1001300003138716831603171519A22883120313B6
:100140000712A528831203130716831603179518A1
:10015000AD28831203138711B02883120313871568
:10016000831603171518B828831203130711BB2829
:1001700083120313071503173F18C128031307142D
:10018000C3280313071087144120871003173F1C4F
:0A019000CB284420CC2851200800A1
:08019A00FA1FF2130030080007
:1001A20083120313F801F9011030FC00710DF80DF0
:1001B200F90D7408F8027508031C750FF90203188B
:1001C200E9287408F80775080318750FF907031072
:0A01D200F00DF10DFC0BD72808001A
:0E01DC00F201F101F001F801F301003008001A
:1001EA007B15FB1FFF280130F300F201F101F0013A
:0801FA00FA0DF20CFF300800C1
:10020200831203173F108316140895005820031712
:040212003F1408008D
:10021600FB14FB1F1529FF30F300F200F100F0007C
:08022600FA0DF20CFF30080094
:10022E0083120313FB01FA01F901F801A001730D0A
:10023E00F80D7408F8027508031C750FF90276089C
:10024E00031C760FFA027708031C770FFB020001DE
:10025E00031C0130A002F30D0730FC00730DF80DE6
:10026E00F90DFA0DFB0DA00D7408731C5029F80240
:10027E007508031C750FF9027608031C760FFA0237
:10028E007708031C770FFB020001031C0130A0024C
:10029E006129F80775080318750FF9077608031812
:1002AE00760FFA0777080318770FFB07000103187C
:1002BE000130A007F30DFC0B3529720DF80DF90D69
:1002CE00FA0DFB0DA00D7408731C7F29F80275083A
:1002DE00031C750FF9027608031C760FFA027708D5
:1002EE00031C770FFB020001031C0130A0029029B2
:1002FE00F80775080318750FF90776080318760FB7
:10030E00FA0777080318770FFB070001031801306F
:10031E00A007F20D0730FC00720DF80DF90DFA0D65
:10032E00FB0DA00D7408721CAE29F8027508031C93
:10033E00750FF9027608031C760FFA027708031C74
:10034E00770FFB020001031C0130A002BF29F80742
:10035E0075080318750FF90776080318760FFA0754
:10036E0077080318770FFB07000103180130A00769
:10037E00F20DFC0B9329710DF80DF90DFA0DFB0D15
:10038E00A00D7408721CDD29F8027508031C750F88
:10039E00F9027608031C760FFA027708031C770F12
:1003AE00FB020001031C0130A002EE29F8077508BC
:1003BE000318750FF90776080318760FFA077708F2
:1003CE000318770FFB07000103180130A007F10D8A
:1003DE000730FC00710DF80DF90DFA0DFB0DA00D97
:1003EE007408711C0C2AF8027508031C750FF902AB
:1003FE007608031C760FFA027708031C770FFB02B0
:10040E000001031C0130A0021D2AF807750803180D
:10041E00750FF90776080318760FFA077708031891
:10042E00770FFB07000103180130A007F10DFC0B3D
:10043E00F129700DF80DF90DFA0DFB0DA00D7408D4
:10044E00711C3B2AF8027508031C750FF902760819
:10045E00031C760FFA027708031C770FFB020001CC
:10046E00031C0130A0024C2AF80775080318750FFB
:10047E00F90776080318760FFA0777080318770F2F
:10048E00FB07000103180130A007F00D0730FC0038
:10049E00700DF80DF90DFA0DFB0DA00D7408701C02
:1004AE006A2AF8027508031C750FF9027608031CF8
:1004BE00760FFA027708031C770FFB020001031C6C
:1004CE000130A0027B2AF80775080318750FF9078B
:1004DE0076080318760FFA0777080318770FFB07CD
:1004EE00000103180130A007F00DFC0B4F2A701805
:1004FE008E2A7408F80775080318750FF907760821
:10050E000318760FFA0777080318770FFB07080012
:10051E0083120313FB017308031D77080319E62AE0
:10052E0072087606FA007708F3077E30031CA32ABA
:10053E00F3020318E92AA62AF302031CEC2A720816
:10054E00F8007108FC007008FD00F817F61703108C
:10055E00F201F101F0011830A1007D1CC02A7408CF
:10056E00F00775080318750FF10776080318760F54
:10057E00F207F20CF10CF00CF80CFC0CFD0C031055
:10058E00A10BB42AF21BD02AF80DF00DF10DF20DCD
:10059E00F3037B1B701CE22AF81FE22AF00A0319F0
:1005AE00F10A0319F20A031DE22AF20CF10CF00C07
:1005BE00F30A0319E92AFA1FF2130030EE2A01306A
:1005CE00EE20EE2A02300B21EE2A0430F520000038
:0205DE00080013
:0E05E000831203175E088A005D08820008007F
:1005EE000E3083120313FD00FD0BFB2A00000800E2
:1005FE0083120313FA017308031D7A147708031D7F
:10060E00FA147A0803194B2B033A0319162B7A188E
:10061E00132BF61F492B472BF21F472B492B720822
:10062E008039FA00F21376088039F6137A06031928
:10063E00242B7A080319472B492B770873020319C9
:10064E002B2B031C3F2B432B760872020319322BE4
:10065E00031C3F2B432B750871020319392B031C06
:10066E003F2B432B7408700203194B2B0318432B9B
:10067E00FA080319492B472BFA080319472B492B64
:10068E0003140800031008000314031508000800E3
:10069E0083120317EF0105306F0203185F2B6F08EB
:1006AE00831612078400203080008312EF0A522B2B
:1006BE006F0883161207840080018312EF036F0800
:1006CE008316120793000A30F400F5011008F000AB
:1006DE001108F100D1207808F0007908F1003030CF
:1006EE00F0078316031713088400700880000A3081
:1006FE00F400F5011008F0001108F100D120700887
:10070E008316031790007108910000307106031DC7
:10071E00922B00307006031D952B982B8312EF033E
:04072E00662B08002E
:100732008316031398189F2B0000992B831203171B
:080742006F0803139900080081
:10074A0083120317EF03EF036F08003C0318B22B61
:10075A00EF03000000000000A92B000000000000C9
:06076A0000000000080081
:10077000831603171008F2007208F100F20A11083C
:10078000F000910A700884000008F00071088400ED
:10079000700880007108840000080319D02BBC2B5E
:0607A0001008F000080043
:1007A600831203132230FC00F801F901FA01FB0160
:1007B600FC030319092C0310FB0CFA0CF90CF80CBA
:1007C600F30CF20CF10CF00C031CDB2BFC030319ED
:1007D600FB2B7408F80775080318750FF9077608D8
:1007E6000318760FFA0777080318770FFB07DF2B36
:1007F6007408F80775080318750FF90776080318C3
:0E080600760FFA0777080318770FFB07080034
:10081400403083120313F0001F30F100F201F301A2
:020824000800CA
:06082600FB15FF30080085
:10082C00282C80308316031790003B2CC03090008E
:10083C003B2C943090003B2CD43090003B2C8030DF
:10084C0090003B2C831603171008013A0319172C40
:10085C001008023A03191C2C1008033A03191F2C18
:10086C001008043A0319222C252C1103F00010084F
:10087C00F0077008900070089500582003173F107F
:10088C00EF016F0883161207840000080319582C17
:10089C0083126F088316120784000008940001214C
:0A08AC00EF0A472C83123F140800E6
:1008B60083120313FD01F80170080319003474064E
:1008C600FA00FA1BFD09FB01F41F6B2CF409F40A6C
:1008D600F01F6F2CF009F00A70087404FA00FA1B76
:1008E600932C7408F802F00D700DF80D7408F807D3
:1008F600F00D0630FC00700DF80D74087018F80243
:10090600701CF807F00DFC0B7E2C701CF8077B188A
:10091600A12CFD1F0034F009F00AF809F80A00348A
:10092600F41F9E2CF01B9B2C7008F800F0018C2CF9
:10093600F001F00A0034F009FB0A742CF80A740876
:100946007802031D8C2CF801F00AF01F8C2CFF3462
:02095600080097
:10095800A1017208031DC12C7108F2007008F10092
:10096800F001A1157208031DC12C7108F200F101F4
:10097800A111211672080319CF2C2108F302031DB7
:10098800031CD32C0310F21BD72CF00DF10DF20D24
:10099800F30BC72CD32C0130FC00EE20DA2C0230EC
:0E09A800FC00F520DA2C0430FC00CD20080005
:1009B6008030831203176006F00080305C067002F8
:1009C600031DE72C5B085F020318142D861106161B
:1009D600861601308316950058200C3083160317AF
:1009E60095005820013083160317900001309100BE
:1009F60026309200162401308316900001309100B3
:100A06001E30920016240630FB001330FC00AD3079
:100A1600FD00FD0B0C2DFC0B0C2DFB0B0C2D000013
:100A2600000080303606F00080305C067002031D40
:100A36001E2D5B0835020318572D80305C06F0002A
:100A4600803060067002031D2A2D5F085B020318C2
:100A5600572D8611061686120130831695005820EA
:100A66000C308316031795005820013083160317A0
:100A7600900001309100A0309200162401308316B8
:100A8600900001309100B830920016240630FB0029
:100A96001330FC00AD30FD00FD0B4F2DFC0B4F2D30
:100AA600FB0B4F2D0000000080305C06F00080300C
:100AB60036067002031D612D35085B020318662D8C
:080AC6008611061286120800D9
:100ACE00792D803083120317E2008C2DC030E200A6
:100ADE008C2D9430E2008C2DD430E2008C2D8030A1
:100AEE00E2008C2D831203176208013A0319682D58
:100AFE006208023A03196D2D6208033A0319702D2C
:100B0E006208043A0319732D762D6303F000620810
:100B1E00F0077008E2003F14700883169500582005
:100B2E0003173F10640883169500582003173F14CF
:020B3E000800AD
:100B400083120317ED01EE016208E9006308EA0071
:100B50006408EB006508EC006C08FF3A031DBA2D31
:100B60006B08FF3A031DBA2D6A08FF3A031DBA2D20
:100B70006908FF3A031DC52D660883169000D3301F
:100B80009100B8230330F000AB2F01308312E7004F
:100B9000EB1FD52D80306B06F0007008EB00E70AE4
:100BA000660884002D308000E60A0030F0006C06F4
:100BB000031DE42D70086B06031DE42D70086A0602
:100BC000031DE42D6908003A031DEE2D6608831607
:100BD0009000D7309100B823F001AB2F83126C083E
:100BE000FF3A031DFD2D6B08003A031DFD2D6A0819
:100BF000003A031DFD2D6908003A031D092E660801
:100C000083169000DA309100B82383126708F00051
:100C1000AB2F0030F4000030F5000030F6007F30DC
:100C2000F7006908F0006A08F1006B08F2006C0830
:100C3000F300FF22013003180030F00070080319A0
:100C40003E2E03176908F0006A08F1006B08F200F5
:100C50006C08F3000030F4000030F5002030F6009E
:100C60008230F7008F2270080317E9007108EA004C
:100C70007208EB007308EC00EE03092E0317003036
:100C8000F4000030F5002030F6008230F7006908EB
:100C9000F0006A08F1006B08F2006C08F300FF2214
:100CA0000130031C0030F00070080319742E031784
:100CB0006908F0006A08F1006B08F2006C08F300A4
:100CC000CD30F400CC30F5004C30F6007B30F7002E
:100CD0008F2270080317E9007108EA007208EB0020
:100CE0007308EC00EE0A3E2E0317FF306905F8008A
:100CF000FF306A05F9007F306B05FA0000306C05A3
:100D0000FB007808F4007908F5007A08F6007B0803
:100D1000F700F40DF50DF60DF70D741000306905B0
:100D2000F00000306A05F10000306B05F200FF3082
:100D30006C05F3007008E9007108EA007208EB0026
:100D40007308EC0074086904F00075086A04F10087
:100D500076086B04F20077086C04F3007008E90071
:100D60007108EA007208EB007308EC007F306C0237
:100D7000F0007008E8000130EC007008F400690829
:100D8000F0006A08F1006B08F2006C08F3007408C8
:100D90000319D12EF00DF10DF20DF30D7010FF3E81
:100DA000C82E7008E9007108EA007208EB007308A9
:100DB000EC006C08303EF00066088400700880008B
:100DC000E60A80306E06F0008030013A7002031CA3
:100DD000F22E8030063AF00080306E067002031C5E
:100DE000F22EF92E660884002E308000E60A0130CB
:100DF000ED000630E8006808003A0319572FEC01AF
:100E00006908F0006A08F1006B08F2006C08F30052
:100E1000F00DF10DF20DF30D7010F00DF10DF20D5E
:100E2000F30D70106908F0076A0803186A0FF107DC
:100E30006B0803186B0FF2076C0803186C0FF307AD
:100E40007008E9007108EA007208EB007308EC0012
:100E50006908F0006A08F1006B08F2006C08F30002
:100E6000F00DF10DF20DF30D70107008E90071082E
:100E7000EA007208EB007308EC006C08303EF000EA
:100E80006608840070088000E60A6D08003A031DB9
:100E9000552FEE036E08003A031D552F6608840097
:100EA0002E308000E60A0130ED00E803FB2EFF3013
:100EB000660784000008303A031D602FE603572FB1
:100EC000FF306607840000082E3A031D682FE603F2
:100ED0006E08003A0319A72F660884006530800069
:100EE000E60A80306E06F0008030003A7002031887
:100EF000812F660884002D308000E60A6E08003CD1
:100F0000EE006E08E8008030093AF00080306E068E
:100F100070020318982F0A30F4006808F0005B2470
:100F20003030F00703176608840070088000E60A76
:100F30000A30F4006808F0005B247808F0003030D4
:100F4000F00703176608840070088000E60A660848
:080F500084008001F00108009B
:100F5800831203137008F8007108F000F101F20120
:100F6800F301FB01FC019630F300FA017008F1006F
:0C0F78007808F000F801F201AC24080039
:100F840083120317E401620884000008E300630885
:100F9400003A0319D82F6308EF0099230317E40AD2
:0E0FA4006408620784000008E300C92F0800FB
:100FB20083160313981690308312980083168717AE
:100FC200071383128C1EE82F1A08F000E22F080084
:100FD200803083120313F0007008083E8400FF3053
:040FE2008000080083
:101000008A110A248A15E830F4000330F500F6014D
:10101000F7018A11D3238A1570080317EA007108B3
:10102000EB007208EC007308ED006208F40063083E
:10103000F500F601F7018A1117218A1570080317C8
:10104000EA007108EB007208EC007308ED0070080C
:10105000F5007108F6007208F7007308F800F80C44
:10106000F70CF60CF50CF813F80CF70CF60CF50C65
:10107000F8137508F0007608F1007708F200780898
:10108000F300F30CF20CF10CF00CF3137008E60013
:101090007108E7008A110A248A1503176408F4000E
:1010A0006508F500F601F7018A11D3238A150317A5
:1010B0006608F9006708FA00FB01FC010330F8003C
:1010C0007908F4007A08F5007B08F6007C08F70040
:1010D000780803197228F40DF50DF60DF70D74104C
:1010E000FF3E69288A1117218A1570080317EA0044
:1010F0007108EB007208EC007308ED000A30F40090
:101100000030F5006608F0006708F1008A11D12070
:101110008A1570080317E6007108E70000307102B5
:10112000031D94280330700203189728F028400804
:1011300084006D08003C031DA7286C08003C031DBB
:10114000A7286B08003C031DA7286A08003C031869
:10115000EE28831603136F088004831203176708B1
:101160000319C428E801E90100306902031DBA2807
:10117000670868020318C428EF018A11A5238A159D
:10118000E80A0319E90AB4286608EF008A11A523C2
:101190008A153E08800567080319E028E801E9017F
:1011A00000306902031DD628670868020318E0288A
:1011B000EF018A11A5238A15E80A0319E90AD02844
:1011C0006608EF008A11A5238A150130EA02031C84
:1011D000EB02031CEC02031CED0299283E0880057B
:0211E000080005
:1011E200831203137408003A031D0C297508003A90
:1011F200031D0C297608003A031D0C297708003AD2
:10120200031D0C29FF30F000FF30F1007F30F200A7
:10121200FF30F300AF2983120313770803199B29C8
:1012220073080319A029720876068039FA00F217AA
:10123200F617A1017208F8007108FC007008FD00A1
:101242007408FD027508031C750FFC027608031C66
:10125200760FF802F801FC01FD01031C3729031087
:10126200F20CF10CF00CF80C0130A1007708F3023B
:10127200031C41297E302107F3070318A5294629BB
:101282007E302107F307031CAA291830FA07FD0D47
:10129200FC0DF80DF00DF10DF20DA10D7408F00228
:1012A2007508031C750FF1027608031C760FF20213
:1012B200760DA104211C5F297D146A297408F007A8
:1012C20075080318750FF10776080318760AF207F6
:1012D2007D10FA031F307A05031D48297B1B7D1CF4
:1012E20091290310F00DF10DF20DA10D7408F00219
:1012F2007508031C750FF1027608031C760FF202C3
:10130200760D21040139FD070318FC0A0319F80AB6
:10131200031D9129F80CFC0CFD0CF30A0319A529F5
:10132200FA1FF8137808F2007C08F1007D08F0003B
:101332000030AE2901308A1113248A15AE290230F9
:101342008A11EE208A15AE2904308A110B218A15E2
:0E135200AE2908308A11F5208A150000080027
:1013600083120317E701E8016208E9006308EA0055
:1013700080306306F00080307002031DC129003008
:1013800062020318CF290130E7000030E80062084C
:10139000003CE9006308031C013EEA01EA02690817
:1013A0008316900083126A088316910083126408E2
:1013B000831692008A114F238A1506308312031771
:1013C000E5000030E6006608003C031DE9296508D9
:1013D000003C0318042A65086407F2000130650226
:1013E000F0000030031C013E6602F1007008640743
:1013F00084000008F000720884007008800001304A
:10140000E502031CE603E329640884002030800021
:10141000670868040319222AE501E60165086407E4
:1014200084000008203A031D192AE50A0319E60A78
:101430000E2A0130E502031CE603650864078400F8
:061440002D3080000800C1
:10144600831203139F01C0309F0483165909F000CD
:1014560070089F051F179F17831203176208F00075
:10146600F00D7010F00D7010F00D70107008031371
:101476009F041F148A11F7228A151F151F1D452A5E
:101486000000412A1F101E08F100F00183161E08F5
:08149600F0040030F10408002D
:10149E00831203176208C0006308F1000130F000E8
:1014AE00710803195E2AF00D7010FF3E582A70085D
:1014BE0083160313EF00F009700883120317BE00A2
:1014CE0080306207840070088005841370088005E0
:0214DE00080004
:1014E000FF3083120317BB00FF30BC00FF30BD008C
:1014F000FF3003139F01C0309F0483165909F00089
:0E15000070089F051F179F1783121F14080005
:10150E008030831203175C06F000803036067002BE
:10151E00031D932A35085B020318F62A80303A061B
:10152E00F000803038067002031D9F2A37083902FA
:10153E000318F62A8615061106120130831690003E
:10154E0001309100A93092008A1116248A150230BA
:10155E008316900001309100303092008A111624CB
:10156E008A150630FB001330FC00AD30FD00FD0B7C
:10157E00BE2AFC0BBE2AFB0BBE2A00000000013067
:10158E00831695008A1158208A150C30831603177E
:10159E0095008A1158208A15013083160317900082
:1015AE00013091003F3092008A1116248A150230C4
:1015BE008316900001309100253092008A11162476
:1015CE008A150630FB001330FC00AD30FD00FD0B1C
:1015DE00EE2AFC0BEE2AFB0BEE2A000000008030F8
:1015EE003806F00080303A067002031D002B3908D1
:1015FE0037020318402B80303A06F0008030300658
:10160E007002031D0C2B2F0839020318402B0615F0
:10161E0086110130831695008A1158208A150C30D8
:10162E008316031795008A1158208A1501308316E8
:10163E000317900001309100453092008A11162454
:10164E008A15013083169000013091005C309200B3
:10165E008A1116248A150630FB001330FC00AD30BB
:10166E00FD00FD0B382BFC0B382BFB0B382B000031
:10167E00000080303006F00080303A067002031D04
:10168E004A2B39082F0203187E2B061586110130BE
:10169E00831695008A1158208A150C30831603176D
:1016AE0095008A1158208A15013083160317900071
:1016BE0001309100663092008A1116248A1502308C
:1016CE008316900001309100523092008A11162438
:1016DE008A150630FB001330FC00AD30FD00FD0B0B
:1016EE00762BFC0B762BFB0B762B000000000800F4
:1016FE008A11F0228A150A128000840ADD0A031963
:0A170E00DE0AF003031D7F2B080024
:101718008316031387100710071187110712871202
:1017280083128710071087120712871107118A1171
:1017380044208A158A1144208A158A1144208A1562
:101748008715071587148A1141208A1587108A1171
:1017580044208A1587148A1141208A1587108A1116
:1017680044208A1587148A1141208A1587108A1106
:1017780044208A15071187148A1141208A15871079
:101788008A1144208A1587148A1141208A158710E6
:101798008711871687148A1141208A1587108A11A4
:1017A80044208A158712071587148A1141208A1543
:1017B8008710071187148A1141208A1587108A110A
:1017C80044208A1587148A1141208A158710071525
:1017D80087148A1141208A1587108A1144208A1596
:1017E800071187148A1141208A1587108716071652
:1017F8008715071587148A1141208A1587108A11C1
:0A18080044208A1503173F1408005E
:101812006026FF30831603138500FF30880006140C
:101822008614061186110612861286138B170B1662
:101832008B16FE30831281003330831699001815FF
:101842008A11D9278A150330FB000830FC00773053
:10185200FD00FD0B2A2CFC0B2A2CFB0B2A2C06303C
:101862000317E2000730E3004F228A11E9278A15A5
:1018720070228C230130831695008A1158208A1514
:101882000C308316031795008A1158208A15061109
:1018920086110612861202300317E2002322700814
:1018A20083120317B9007108BA007008E2007108C8
:1018B200E3003130E400B021C530E2008A11C227D2
:1018C2008A153130E2008A11C2278A153130831617
:1018D2009000EC3091008A11B8238A1501308312EE
:1018E200E2002322700883120317DB007108DC0078
:1018F2007008E2007108E3004130E400B021DE30FC
:10190200E2008A11C2278A154130E2008A11C227F9
:101912008A15413083169000EB3091008A11B8236A
:101922008A150D308312EF008A1199238A15063029
:10193200FB001330FC00AD30FD00FD0B9E2CFC0BB8
:101942009E2CFB0B9E2C000000000317E2012322B9
:101952007008ED007108EE008A11AC278A1500307C
:10196200F4004030F5001C30F6008B30F7008A118D
:101972008F228A150030F4000030F5000030F600A6
:101982008930F700F12070080317D4007108D500E0
:101992007208D6007308D7000030F4000030F5005A
:1019A2002030F6008230F700F12070080317D400CF
:1019B2007108D5007208D6007308D700FF30B50051
:1019C2000130B6002030DF000330E000003059065D
:1019D200031DED2C01305806031D402D01308316E6
:1019E200900001309100103092008A1116248A155D
:1019F2000230E2000830E300DF30E4008A1167259C
:101A02008A150230E2000930E3004330E4008A1113
:101A120067258A155408E2005508E3005608E400D9
:101A22005708E5004530E6008A11A0258A15831281
:101A32000317C9010230831690000330910045302C
:101A420092008A1116248A150630FB001330FC001E
:101A5200AD30FD00FD0B2B2DFC0B2B2DFB0B2B2D8D
:101A6200000000000130831695008A1158208A1563
:101A72000C308316031795008A1158208A15031318
:101A8200861C502DFF300317B7000130B8002030FC
:101A9200AF000330B00087228A11DB248A150317B6
:101AA20086185F2D3230B7000130B800FF30AF002A
:101AB2000130B00087228A11DB248A155408F40011
:101AC2005508F5005608F6005708F7000030F000F8
:101AD2000030F1000C30F2008430F3008A11FF2252
:101AE2008A15013003180030F00070080319A02D88
:101AF2008030033AF000803003175C067002031D49
:101B0200842D5B08843C0318A02D7030E200033062
:101B1200E3002C30E4000130E5000020FF308600B5
:101B22000B30FB002630FC005D30FD00FD0B972DD5
:101B3200FC0B972DFB0B972D0000000086014C2C0F
:021B4200A12DD3
:101CC000253084004B3083120313F000F6300317E5
:101CD000DD000D30DE007F23A03084004F30831202
:101CE0000313F000A7300317DD000D30DE007F2363
:101CF0001030831784001F3083120313F00041302B
:0E1D00000317DD000E30DE007F238313080082
:101B4E006134633474346934763465347A342034D1
:021B5E00003451
:101B60004234693465346E34763465346E34753499
:0E1B70006534203420342034203420340034F6
:101B7E00763465346E34743469346C346134743450
:0A1B8E0065347534723420340034DD
:101B980042347234753469347434203476346134A0
:0C1BA8006C347534653420343D34003456
:081BB4004E3461344E3400345C
:041BBC00303400348D
:021BC0000F34E0
:081BC20049344E34463400346E
:101BCA00473461347A342034763461346C34753471
:0A1BDA00653420343D34203400341B
:021BE4000034CB
:021BE6000034C9
:041BE8000034003491
:101BEC006134633463346534703474346134623416
:061BFC006C346534003476
:101C02006D3469346C346C34693465347534203421
:0E1C1200703472346F347034723465340034C0
:0C1C20006234723475346934743400345A
:101C2C002034203470346F346C346C347534743428
:0A1C3C0069346F346E342034003434
:101C460020346D3469346C346C34693465347534DD
:041C56002034003402
:101C5A002034203473346F346E346F347234653404
:041C6A0020340034EE
:101C6E0069346E34613475346434693462346C347E
:041C7E006534003495
:101C8200543465346D347034653472346134743470
:0C1C920075347234653420343A34003468
:101C9E0070346F346C346C347534653420340034E5
:101CAE006D3469346C346C34693465347534203475
:021CBE000034F0
:02400E004A2F37
:00000001FF
